{
  "_format": "hh-sol-artifact-1",
  "contractName": "BobTheDeveloper",
  "sourceName": "contracts/BobTheDeveloper.sol",
  "abi": [
    {
      "inputs": [],
      "stateMutability": "nonpayable",
      "type": "constructor"
    },
    {
      "anonymous": false,
      "inputs": [
        {
          "indexed": true,
          "internalType": "address",
          "name": "owner",
          "type": "address"
        },
        {
          "indexed": true,
          "internalType": "address",
          "name": "approved",
          "type": "address"
        },
        {
          "indexed": true,
          "internalType": "uint256",
          "name": "tokenId",
          "type": "uint256"
        }
      ],
      "name": "Approval",
      "type": "event"
    },
    {
      "anonymous": false,
      "inputs": [
        {
          "indexed": true,
          "internalType": "address",
          "name": "owner",
          "type": "address"
        },
        {
          "indexed": true,
          "internalType": "address",
          "name": "operator",
          "type": "address"
        },
        {
          "indexed": false,
          "internalType": "bool",
          "name": "approved",
          "type": "bool"
        }
      ],
      "name": "ApprovalForAll",
      "type": "event"
    },
    {
      "anonymous": false,
      "inputs": [
        {
          "indexed": true,
          "internalType": "address",
          "name": "previousOwner",
          "type": "address"
        },
        {
          "indexed": true,
          "internalType": "address",
          "name": "newOwner",
          "type": "address"
        }
      ],
      "name": "OwnershipTransferred",
      "type": "event"
    },
    {
      "anonymous": false,
      "inputs": [
        {
          "indexed": true,
          "internalType": "address",
          "name": "from",
          "type": "address"
        },
        {
          "indexed": true,
          "internalType": "address",
          "name": "to",
          "type": "address"
        },
        {
          "indexed": true,
          "internalType": "uint256",
          "name": "tokenId",
          "type": "uint256"
        }
      ],
      "name": "Transfer",
      "type": "event"
    },
    {
      "inputs": [
        {
          "internalType": "address",
          "name": "to",
          "type": "address"
        },
        {
          "internalType": "uint256",
          "name": "tokenId",
          "type": "uint256"
        }
      ],
      "name": "approve",
      "outputs": [],
      "stateMutability": "nonpayable",
      "type": "function"
    },
    {
      "inputs": [
        {
          "internalType": "address",
          "name": "owner",
          "type": "address"
        }
      ],
      "name": "balanceOf",
      "outputs": [
        {
          "internalType": "uint256",
          "name": "",
          "type": "uint256"
        }
      ],
      "stateMutability": "view",
      "type": "function"
    },
    {
      "inputs": [],
      "name": "getAllTokens",
      "outputs": [
        {
          "components": [
            {
              "internalType": "string",
              "name": "tokenURI",
              "type": "string"
            },
            {
              "internalType": "address payable",
              "name": "owner",
              "type": "address"
            }
          ],
          "internalType": "struct BobTheDeveloper.Token[]",
          "name": "",
          "type": "tuple[]"
        }
      ],
      "stateMutability": "view",
      "type": "function"
    },
    {
      "inputs": [
        {
          "internalType": "uint256",
          "name": "tokenId",
          "type": "uint256"
        }
      ],
      "name": "getApproved",
      "outputs": [
        {
          "internalType": "address",
          "name": "",
          "type": "address"
        }
      ],
      "stateMutability": "view",
      "type": "function"
    },
    {
      "inputs": [],
      "name": "getStatus",
      "outputs": [
        {
          "components": [
            {
              "internalType": "uint256",
              "name": "maxTokenCount",
              "type": "uint256"
            },
            {
              "internalType": "uint256",
              "name": "currentTokenCount",
              "type": "uint256"
            }
          ],
          "internalType": "struct BobTheDeveloper.Status",
          "name": "",
          "type": "tuple"
        }
      ],
      "stateMutability": "view",
      "type": "function"
    },
    {
      "inputs": [
        {
          "internalType": "address",
          "name": "owner",
          "type": "address"
        },
        {
          "internalType": "address",
          "name": "operator",
          "type": "address"
        }
      ],
      "name": "isApprovedForAll",
      "outputs": [
        {
          "internalType": "bool",
          "name": "",
          "type": "bool"
        }
      ],
      "stateMutability": "view",
      "type": "function"
    },
    {
      "inputs": [],
      "name": "mintNFT",
      "outputs": [
        {
          "components": [
            {
              "internalType": "string",
              "name": "tokenURI",
              "type": "string"
            },
            {
              "internalType": "address payable",
              "name": "owner",
              "type": "address"
            }
          ],
          "internalType": "struct BobTheDeveloper.Token",
          "name": "",
          "type": "tuple"
        }
      ],
      "stateMutability": "payable",
      "type": "function"
    },
    {
      "inputs": [],
      "name": "name",
      "outputs": [
        {
          "internalType": "string",
          "name": "",
          "type": "string"
        }
      ],
      "stateMutability": "view",
      "type": "function"
    },
    {
      "inputs": [],
      "name": "owner",
      "outputs": [
        {
          "internalType": "address",
          "name": "",
          "type": "address"
        }
      ],
      "stateMutability": "view",
      "type": "function"
    },
    {
      "inputs": [
        {
          "internalType": "uint256",
          "name": "tokenId",
          "type": "uint256"
        }
      ],
      "name": "ownerOf",
      "outputs": [
        {
          "internalType": "address",
          "name": "",
          "type": "address"
        }
      ],
      "stateMutability": "view",
      "type": "function"
    },
    {
      "inputs": [],
      "name": "renounceOwnership",
      "outputs": [],
      "stateMutability": "nonpayable",
      "type": "function"
    },
    {
      "inputs": [
        {
          "internalType": "address",
          "name": "from",
          "type": "address"
        },
        {
          "internalType": "address",
          "name": "to",
          "type": "address"
        },
        {
          "internalType": "uint256",
          "name": "tokenId",
          "type": "uint256"
        }
      ],
      "name": "safeTransferFrom",
      "outputs": [],
      "stateMutability": "nonpayable",
      "type": "function"
    },
    {
      "inputs": [
        {
          "internalType": "address",
          "name": "from",
          "type": "address"
        },
        {
          "internalType": "address",
          "name": "to",
          "type": "address"
        },
        {
          "internalType": "uint256",
          "name": "tokenId",
          "type": "uint256"
        },
        {
          "internalType": "bytes",
          "name": "data",
          "type": "bytes"
        }
      ],
      "name": "safeTransferFrom",
      "outputs": [],
      "stateMutability": "nonpayable",
      "type": "function"
    },
    {
      "inputs": [
        {
          "internalType": "address",
          "name": "operator",
          "type": "address"
        },
        {
          "internalType": "bool",
          "name": "approved",
          "type": "bool"
        }
      ],
      "name": "setApprovalForAll",
      "outputs": [],
      "stateMutability": "nonpayable",
      "type": "function"
    },
    {
      "inputs": [
        {
          "internalType": "bytes4",
          "name": "interfaceId",
          "type": "bytes4"
        }
      ],
      "name": "supportsInterface",
      "outputs": [
        {
          "internalType": "bool",
          "name": "",
          "type": "bool"
        }
      ],
      "stateMutability": "view",
      "type": "function"
    },
    {
      "inputs": [],
      "name": "symbol",
      "outputs": [
        {
          "internalType": "string",
          "name": "",
          "type": "string"
        }
      ],
      "stateMutability": "view",
      "type": "function"
    },
    {
      "inputs": [
        {
          "internalType": "uint256",
          "name": "tokenId",
          "type": "uint256"
        }
      ],
      "name": "tokenURI",
      "outputs": [
        {
          "internalType": "string",
          "name": "",
          "type": "string"
        }
      ],
      "stateMutability": "view",
      "type": "function"
    },
    {
      "inputs": [
        {
          "internalType": "address",
          "name": "from",
          "type": "address"
        },
        {
          "internalType": "address",
          "name": "to",
          "type": "address"
        },
        {
          "internalType": "uint256",
          "name": "tokenId",
          "type": "uint256"
        }
      ],
      "name": "transferFrom",
      "outputs": [],
      "stateMutability": "nonpayable",
      "type": "function"
    },
    {
      "inputs": [
        {
          "internalType": "address",
          "name": "newOwner",
          "type": "address"
        }
      ],
      "name": "transferOwnership",
      "outputs": [],
      "stateMutability": "nonpayable",
      "type": "function"
    },
    {
      "inputs": [],
      "name": "withdraw",
      "outputs": [],
      "stateMutability": "nonpayable",
      "type": "function"
    }
  ],
  "bytecode": "0x60806040526028600855662386f26fc100006009553480156200002157600080fd5b506040518060400160405280600f81526020017f426f62546865446576656c6f70657200000000000000000000000000000000008152506040518060400160405280600381526020017f425444000000000000000000000000000000000000000000000000000000000081525081600090816200009f919062000422565b508060019081620000b1919062000422565b505050620000d4620000c8620000da60201b60201c565b620000e260201b60201c565b62000509565b600033905090565b6000600660009054906101000a900473ffffffffffffffffffffffffffffffffffffffff16905081600660006101000a81548173ffffffffffffffffffffffffffffffffffffffff021916908373ffffffffffffffffffffffffffffffffffffffff1602179055508173ffffffffffffffffffffffffffffffffffffffff168173ffffffffffffffffffffffffffffffffffffffff167f8be0079c531659141344cd1fd0a4f28419497f9722a3daafe3b4186f6b6457e060405160405180910390a35050565b600081519050919050565b7f4e487b7100000000000000000000000000000000000000000000000000000000600052604160045260246000fd5b7f4e487b7100000000000000000000000000000000000000000000000000000000600052602260045260246000fd5b600060028204905060018216806200022a57607f821691505b60208210810362000240576200023f620001e2565b5b50919050565b60008190508160005260206000209050919050565b60006020601f8301049050919050565b600082821b905092915050565b600060088302620002aa7fffffffffffffffffffffffffffffffffffffffffffffffffffffffffffffffff826200026b565b620002b686836200026b565b95508019841693508086168417925050509392505050565b6000819050919050565b6000819050919050565b600062000303620002fd620002f784620002ce565b620002d8565b620002ce565b9050919050565b6000819050919050565b6200031f83620002e2565b620003376200032e826200030a565b84845462000278565b825550505050565b600090565b6200034e6200033f565b6200035b81848462000314565b505050565b5b8181101562000383576200037760008262000344565b60018101905062000361565b5050565b601f821115620003d2576200039c8162000246565b620003a7846200025b565b81016020851015620003b7578190505b620003cf620003c6856200025b565b83018262000360565b50505b505050565b600082821c905092915050565b6000620003f760001984600802620003d7565b1980831691505092915050565b6000620004128383620003e4565b9150826002028217905092915050565b6200042d82620001a8565b67ffffffffffffffff811115620004495762000448620001b3565b5b62000455825462000211565b6200046282828562000387565b600060209050601f8311600181146200049a576000841562000485578287015190505b62000491858262000404565b86555062000501565b601f198416620004aa8662000246565b60005b82811015620004d457848901518255600182019150602085019450602081019050620004ad565b86831015620004f45784890151620004f0601f891682620003e4565b8355505b6001600288020188555050505b505050505050565b6135fd80620005196000396000f3fe60806040526004361061011f5760003560e01c80636352211e116100a0578063a22cb46511610064578063a22cb465146103b6578063b88d4fde146103df578063c87b56dd14610408578063e985e9c514610445578063f2fde38b146104825761011f565b80636352211e146102cf57806370a082311461030c578063715018a6146103495780638da5cb5b1461036057806395d89b411461038b5761011f565b806323b872dd116100e757806323b872dd146102105780632a5c792a146102395780633ccfd60b1461026457806342842e0e1461027b5780634e69d560146102a45761011f565b806301ffc9a71461012457806306fdde0314610161578063081812fc1461018c578063095ea7b3146101c957806314f710fe146101f2575b600080fd5b34801561013057600080fd5b5061014b600480360381019061014691906120a4565b6104ab565b60405161015891906120ec565b60405180910390f35b34801561016d57600080fd5b5061017661058d565b6040516101839190612197565b60405180910390f35b34801561019857600080fd5b506101b360048036038101906101ae91906121ef565b61061f565b6040516101c0919061225d565b60405180910390f35b3480156101d557600080fd5b506101f060048036038101906101eb91906122a4565b610665565b005b6101fa61077c565b604051610207919061238c565b60405180910390f35b34801561021c57600080fd5b50610237600480360381019061023291906123ae565b6109eb565b005b34801561024557600080fd5b5061024e610a4b565b60405161025b9190612500565b60405180910390f35b34801561027057600080fd5b50610279610c0d565b005b34801561028757600080fd5b506102a2600480360381019061029d91906123ae565b610c5e565b005b3480156102b057600080fd5b506102b9610c7e565b6040516102c69190612560565b60405180910390f35b3480156102db57600080fd5b506102f660048036038101906102f191906121ef565b610cab565b604051610303919061225d565b60405180910390f35b34801561031857600080fd5b50610333600480360381019061032e919061257b565b610d31565b60405161034091906125b7565b60405180910390f35b34801561035557600080fd5b5061035e610de8565b005b34801561036c57600080fd5b50610375610dfc565b604051610382919061225d565b60405180910390f35b34801561039757600080fd5b506103a0610e26565b6040516103ad9190612197565b60405180910390f35b3480156103c257600080fd5b506103dd60048036038101906103d891906125fe565b610eb8565b005b3480156103eb57600080fd5b5061040660048036038101906104019190612773565b610ece565b005b34801561041457600080fd5b5061042f600480360381019061042a91906121ef565b610f30565b60405161043c9190612197565b60405180910390f35b34801561045157600080fd5b5061046c600480360381019061046791906127f6565b610f98565b60405161047991906120ec565b60405180910390f35b34801561048e57600080fd5b506104a960048036038101906104a4919061257b565b61102c565b005b60007f80ac58cd000000000000000000000000000000000000000000000000000000007bffffffffffffffffffffffffffffffffffffffffffffffffffffffff1916827bffffffffffffffffffffffffffffffffffffffffffffffffffffffff1916148061057657507f5b5e139f000000000000000000000000000000000000000000000000000000007bffffffffffffffffffffffffffffffffffffffffffffffffffffffff1916827bffffffffffffffffffffffffffffffffffffffffffffffffffffffff1916145b806105865750610585826110af565b5b9050919050565b60606000805461059c90612865565b80601f01602080910402602001604051908101604052809291908181526020018280546105c890612865565b80156106155780601f106105ea57610100808354040283529160200191610615565b820191906000526020600020905b8154815290600101906020018083116105f857829003601f168201915b5050505050905090565b600061062a82611119565b6004600083815260200190815260200160002060009054906101000a900473ffffffffffffffffffffffffffffffffffffffff169050919050565b600061067082610cab565b90508073ffffffffffffffffffffffffffffffffffffffff168373ffffffffffffffffffffffffffffffffffffffff16036106e0576040517f08c379a00000000000000000000000000000000000000000000000000000000081526004016106d790612908565b60405180910390fd5b8073ffffffffffffffffffffffffffffffffffffffff166106ff611164565b73ffffffffffffffffffffffffffffffffffffffff16148061072e575061072d81610728611164565b610f98565b5b61076d576040517f08c379a00000000000000000000000000000000000000000000000000000000081526004016107649061299a565b60405180910390fd5b610777838361116c565b505050565b610784611fee565b6009543410156107c9576040517f08c379a00000000000000000000000000000000000000000000000000000000081526004016107c090612a06565b60405180910390fd5b6008546107d66007611225565b1115610817576040517f08c379a000000000000000000000000000000000000000000000000000000000815260040161080e90612a72565b60405180910390fd5b6108216007611233565b600061082d6007611225565b90506108393382611249565b604051806040016040528061084d83610f30565b81526020013373ffffffffffffffffffffffffffffffffffffffff16815250600a600083815260200190815260200160002060008201518160000190816108949190612c3e565b5060208201518160010160006101000a81548173ffffffffffffffffffffffffffffffffffffffff021916908373ffffffffffffffffffffffffffffffffffffffff160217905550905050600a600082815260200190815260200160002060405180604001604052908160008201805461090d90612865565b80601f016020809104026020016040519081016040528092919081815260200182805461093990612865565b80156109865780601f1061095b57610100808354040283529160200191610986565b820191906000526020600020905b81548152906001019060200180831161096957829003601f168201915b505050505081526020016001820160009054906101000a900473ffffffffffffffffffffffffffffffffffffffff1673ffffffffffffffffffffffffffffffffffffffff1673ffffffffffffffffffffffffffffffffffffffff168152505091505090565b6109fc6109f6611164565b82611267565b610a3b576040517f08c379a0000000000000000000000000000000000000000000000000000000008152600401610a3290612d82565b60405180910390fd5b610a468383836112fc565b505050565b60606000610a596007611225565b67ffffffffffffffff811115610a7257610a71612648565b5b604051908082528060200260200182016040528015610aab57816020015b610a98611fee565b815260200190600190039081610a905790505b50905060005b610abb6007611225565b811015610c0557600a6000600183610ad39190612dd1565b8152602001908152602001600020604051806040016040529081600082018054610afc90612865565b80601f0160208091040260200160405190810160405280929190818152602001828054610b2890612865565b8015610b755780601f10610b4a57610100808354040283529160200191610b75565b820191906000526020600020905b815481529060010190602001808311610b5857829003601f168201915b505050505081526020016001820160009054906101000a900473ffffffffffffffffffffffffffffffffffffffff1673ffffffffffffffffffffffffffffffffffffffff1673ffffffffffffffffffffffffffffffffffffffff1681525050828281518110610be757610be6612e05565b5b60200260200101819052508080610bfd90612e34565b915050610ab1565b508091505090565b610c156115f5565b3373ffffffffffffffffffffffffffffffffffffffff166108fc479081150290604051600060405180830381858888f19350505050158015610c5b573d6000803e3d6000fd5b50565b610c7983838360405180602001604052806000815250610ece565b505050565b610c8661201e565b60405180604001604052806008548152602001610ca36007611225565b815250905090565b600080610cb783611673565b9050600073ffffffffffffffffffffffffffffffffffffffff168173ffffffffffffffffffffffffffffffffffffffff1603610d28576040517f08c379a0000000000000000000000000000000000000000000000000000000008152600401610d1f90612ec8565b60405180910390fd5b80915050919050565b60008073ffffffffffffffffffffffffffffffffffffffff168273ffffffffffffffffffffffffffffffffffffffff1603610da1576040517f08c379a0000000000000000000000000000000000000000000000000000000008152600401610d9890612f5a565b60405180910390fd5b600360008373ffffffffffffffffffffffffffffffffffffffff1673ffffffffffffffffffffffffffffffffffffffff168152602001908152602001600020549050919050565b610df06115f5565b610dfa60006116b0565b565b6000600660009054906101000a900473ffffffffffffffffffffffffffffffffffffffff16905090565b606060018054610e3590612865565b80601f0160208091040260200160405190810160405280929190818152602001828054610e6190612865565b8015610eae5780601f10610e8357610100808354040283529160200191610eae565b820191906000526020600020905b815481529060010190602001808311610e9157829003601f168201915b5050505050905090565b610eca610ec3611164565b8383611776565b5050565b610edf610ed9611164565b83611267565b610f1e576040517f08c379a0000000000000000000000000000000000000000000000000000000008152600401610f1590612d82565b60405180910390fd5b610f2a848484846118e2565b50505050565b6060610f3b82611119565b6000610f4561193e565b90506000815111610f655760405180602001604052806000815250610f90565b80610f6f8461195e565b604051602001610f8092919061304e565b6040516020818303038152906040525b915050919050565b6000600560008473ffffffffffffffffffffffffffffffffffffffff1673ffffffffffffffffffffffffffffffffffffffff16815260200190815260200160002060008373ffffffffffffffffffffffffffffffffffffffff1673ffffffffffffffffffffffffffffffffffffffff16815260200190815260200160002060009054906101000a900460ff16905092915050565b6110346115f5565b600073ffffffffffffffffffffffffffffffffffffffff168173ffffffffffffffffffffffffffffffffffffffff16036110a3576040517f08c379a000000000000000000000000000000000000000000000000000000000815260040161109a906130fa565b60405180910390fd5b6110ac816116b0565b50565b60007f01ffc9a7000000000000000000000000000000000000000000000000000000007bffffffffffffffffffffffffffffffffffffffffffffffffffffffff1916827bffffffffffffffffffffffffffffffffffffffffffffffffffffffff1916149050919050565b61112281611a2c565b611161576040517f08c379a000000000000000000000000000000000000000000000000000000000815260040161115890612ec8565b60405180910390fd5b50565b600033905090565b816004600083815260200190815260200160002060006101000a81548173ffffffffffffffffffffffffffffffffffffffff021916908373ffffffffffffffffffffffffffffffffffffffff160217905550808273ffffffffffffffffffffffffffffffffffffffff166111df83610cab565b73ffffffffffffffffffffffffffffffffffffffff167f8c5be1e5ebec7d5bd14f71427d1e84f3dd0314c0f7b2291e5b200ac8c7c3b92560405160405180910390a45050565b600081600001549050919050565b6001816000016000828254019250508190555050565b611263828260405180602001604052806000815250611a6d565b5050565b60008061127383610cab565b90508073ffffffffffffffffffffffffffffffffffffffff168473ffffffffffffffffffffffffffffffffffffffff1614806112b557506112b48185610f98565b5b806112f357508373ffffffffffffffffffffffffffffffffffffffff166112db8461061f565b73ffffffffffffffffffffffffffffffffffffffff16145b91505092915050565b8273ffffffffffffffffffffffffffffffffffffffff1661131c82610cab565b73ffffffffffffffffffffffffffffffffffffffff1614611372576040517f08c379a00000000000000000000000000000000000000000000000000000000081526004016113699061318c565b60405180910390fd5b600073ffffffffffffffffffffffffffffffffffffffff168273ffffffffffffffffffffffffffffffffffffffff16036113e1576040517f08c379a00000000000000000000000000000000000000000000000000000000081526004016113d89061321e565b60405180910390fd5b6113ee8383836001611ac8565b8273ffffffffffffffffffffffffffffffffffffffff1661140e82610cab565b73ffffffffffffffffffffffffffffffffffffffff1614611464576040517f08c379a000000000000000000000000000000000000000000000000000000000815260040161145b9061318c565b60405180910390fd5b6004600082815260200190815260200160002060006101000a81549073ffffffffffffffffffffffffffffffffffffffff02191690556001600360008573ffffffffffffffffffffffffffffffffffffffff1673ffffffffffffffffffffffffffffffffffffffff168152602001908152602001600020600082825403925050819055506001600360008473ffffffffffffffffffffffffffffffffffffffff1673ffffffffffffffffffffffffffffffffffffffff16815260200190815260200160002060008282540192505081905550816002600083815260200190815260200160002060006101000a81548173ffffffffffffffffffffffffffffffffffffffff021916908373ffffffffffffffffffffffffffffffffffffffff160217905550808273ffffffffffffffffffffffffffffffffffffffff168473ffffffffffffffffffffffffffffffffffffffff167fddf252ad1be2c89b69c2b068fc378daa952ba7f163c4a11628f55a4df523b3ef60405160405180910390a46115f08383836001611ace565b505050565b6115fd611164565b73ffffffffffffffffffffffffffffffffffffffff1661161b610dfc565b73ffffffffffffffffffffffffffffffffffffffff1614611671576040517f08c379a00000000000000000000000000000000000000000000000000000000081526004016116689061328a565b60405180910390fd5b565b60006002600083815260200190815260200160002060009054906101000a900473ffffffffffffffffffffffffffffffffffffffff169050919050565b6000600660009054906101000a900473ffffffffffffffffffffffffffffffffffffffff16905081600660006101000a81548173ffffffffffffffffffffffffffffffffffffffff021916908373ffffffffffffffffffffffffffffffffffffffff1602179055508173ffffffffffffffffffffffffffffffffffffffff168173ffffffffffffffffffffffffffffffffffffffff167f8be0079c531659141344cd1fd0a4f28419497f9722a3daafe3b4186f6b6457e060405160405180910390a35050565b8173ffffffffffffffffffffffffffffffffffffffff168373ffffffffffffffffffffffffffffffffffffffff16036117e4576040517f08c379a00000000000000000000000000000000000000000000000000000000081526004016117db906132f6565b60405180910390fd5b80600560008573ffffffffffffffffffffffffffffffffffffffff1673ffffffffffffffffffffffffffffffffffffffff16815260200190815260200160002060008473ffffffffffffffffffffffffffffffffffffffff1673ffffffffffffffffffffffffffffffffffffffff16815260200190815260200160002060006101000a81548160ff0219169083151502179055508173ffffffffffffffffffffffffffffffffffffffff168373ffffffffffffffffffffffffffffffffffffffff167f17307eab39ab6107e8899845ad3d59bd9653f200f220920489ca2b5937696c31836040516118d591906120ec565b60405180910390a3505050565b6118ed8484846112fc565b6118f984848484611ad4565b611938576040517f08c379a000000000000000000000000000000000000000000000000000000000815260040161192f90613388565b60405180910390fd5b50505050565b606060405180606001604052806035815260200161359360359139905090565b60606000600161196d84611c5b565b01905060008167ffffffffffffffff81111561198c5761198b612648565b5b6040519080825280601f01601f1916602001820160405280156119be5781602001600182028036833780820191505090505b509050600082602001820190505b600115611a21578080600190039150507f3031323334353637383961626364656600000000000000000000000000000000600a86061a8153600a8581611a1557611a146133a8565b5b049450600085036119cc575b819350505050919050565b60008073ffffffffffffffffffffffffffffffffffffffff16611a4e83611673565b73ffffffffffffffffffffffffffffffffffffffff1614159050919050565b611a778383611dae565b611a846000848484611ad4565b611ac3576040517f08c379a0000000000000000000000000000000000000000000000000000000008152600401611aba90613388565b60405180910390fd5b505050565b50505050565b50505050565b6000611af58473ffffffffffffffffffffffffffffffffffffffff16611fcb565b15611c4e578373ffffffffffffffffffffffffffffffffffffffff1663150b7a02611b1e611164565b8786866040518563ffffffff1660e01b8152600401611b40949392919061342c565b6020604051808303816000875af1925050508015611b7c57506040513d601f19601f82011682018060405250810190611b79919061348d565b60015b611bfe573d8060008114611bac576040519150601f19603f3d011682016040523d82523d6000602084013e611bb1565b606091505b506000815103611bf6576040517f08c379a0000000000000000000000000000000000000000000000000000000008152600401611bed90613388565b60405180910390fd5b805181602001fd5b63150b7a0260e01b7bffffffffffffffffffffffffffffffffffffffffffffffffffffffff1916817bffffffffffffffffffffffffffffffffffffffffffffffffffffffff191614915050611c53565b600190505b949350505050565b600080600090507a184f03e93ff9f4daa797ed6e38ed64bf6a1f0100000000000000008310611cb9577a184f03e93ff9f4daa797ed6e38ed64bf6a1f0100000000000000008381611caf57611cae6133a8565b5b0492506040810190505b6d04ee2d6d415b85acef81000000008310611cf6576d04ee2d6d415b85acef81000000008381611cec57611ceb6133a8565b5b0492506020810190505b662386f26fc100008310611d2557662386f26fc100008381611d1b57611d1a6133a8565b5b0492506010810190505b6305f5e1008310611d4e576305f5e1008381611d4457611d436133a8565b5b0492506008810190505b6127108310611d73576127108381611d6957611d686133a8565b5b0492506004810190505b60648310611d965760648381611d8c57611d8b6133a8565b5b0492506002810190505b600a8310611da5576001810190505b80915050919050565b600073ffffffffffffffffffffffffffffffffffffffff168273ffffffffffffffffffffffffffffffffffffffff1603611e1d576040517f08c379a0000000000000000000000000000000000000000000000000000000008152600401611e1490613506565b60405180910390fd5b611e2681611a2c565b15611e66576040517f08c379a0000000000000000000000000000000000000000000000000000000008152600401611e5d90613572565b60405180910390fd5b611e74600083836001611ac8565b611e7d81611a2c565b15611ebd576040517f08c379a0000000000000000000000000000000000000000000000000000000008152600401611eb490613572565b60405180910390fd5b6001600360008473ffffffffffffffffffffffffffffffffffffffff1673ffffffffffffffffffffffffffffffffffffffff16815260200190815260200160002060008282540192505081905550816002600083815260200190815260200160002060006101000a81548173ffffffffffffffffffffffffffffffffffffffff021916908373ffffffffffffffffffffffffffffffffffffffff160217905550808273ffffffffffffffffffffffffffffffffffffffff16600073ffffffffffffffffffffffffffffffffffffffff167fddf252ad1be2c89b69c2b068fc378daa952ba7f163c4a11628f55a4df523b3ef60405160405180910390a4611fc7600083836001611ace565b5050565b6000808273ffffffffffffffffffffffffffffffffffffffff163b119050919050565b604051806040016040528060608152602001600073ffffffffffffffffffffffffffffffffffffffff1681525090565b604051806040016040528060008152602001600081525090565b6000604051905090565b600080fd5b600080fd5b60007fffffffff0000000000000000000000000000000000000000000000000000000082169050919050565b6120818161204c565b811461208c57600080fd5b50565b60008135905061209e81612078565b92915050565b6000602082840312156120ba576120b9612042565b5b60006120c88482850161208f565b91505092915050565b60008115159050919050565b6120e6816120d1565b82525050565b600060208201905061210160008301846120dd565b92915050565b600081519050919050565b600082825260208201905092915050565b60005b83811015612141578082015181840152602081019050612126565b60008484015250505050565b6000601f19601f8301169050919050565b600061216982612107565b6121738185612112565b9350612183818560208601612123565b61218c8161214d565b840191505092915050565b600060208201905081810360008301526121b1818461215e565b905092915050565b6000819050919050565b6121cc816121b9565b81146121d757600080fd5b50565b6000813590506121e9816121c3565b92915050565b60006020828403121561220557612204612042565b5b6000612213848285016121da565b91505092915050565b600073ffffffffffffffffffffffffffffffffffffffff82169050919050565b60006122478261221c565b9050919050565b6122578161223c565b82525050565b6000602082019050612272600083018461224e565b92915050565b6122818161223c565b811461228c57600080fd5b50565b60008135905061229e81612278565b92915050565b600080604083850312156122bb576122ba612042565b5b60006122c98582860161228f565b92505060206122da858286016121da565b9150509250929050565b600082825260208201905092915050565b600061230082612107565b61230a81856122e4565b935061231a818560208601612123565b6123238161214d565b840191505092915050565b60006123398261221c565b9050919050565b6123498161232e565b82525050565b6000604083016000830151848203600086015261236c82826122f5565b91505060208301516123816020860182612340565b508091505092915050565b600060208201905081810360008301526123a6818461234f565b905092915050565b6000806000606084860312156123c7576123c6612042565b5b60006123d58682870161228f565b93505060206123e68682870161228f565b92505060406123f7868287016121da565b9150509250925092565b600081519050919050565b600082825260208201905092915050565b6000819050602082019050919050565b6000604083016000830151848203600086015261244a82826122f5565b915050602083015161245f6020860182612340565b508091505092915050565b6000612476838361242d565b905092915050565b6000602082019050919050565b600061249682612401565b6124a0818561240c565b9350836020820285016124b28561241d565b8060005b858110156124ee57848403895281516124cf858261246a565b94506124da8361247e565b925060208a019950506001810190506124b6565b50829750879550505050505092915050565b6000602082019050818103600083015261251a818461248b565b905092915050565b61252b816121b9565b82525050565b6040820160008201516125476000850182612522565b50602082015161255a6020850182612522565b50505050565b60006040820190506125756000830184612531565b92915050565b60006020828403121561259157612590612042565b5b600061259f8482850161228f565b91505092915050565b6125b1816121b9565b82525050565b60006020820190506125cc60008301846125a8565b92915050565b6125db816120d1565b81146125e657600080fd5b50565b6000813590506125f8816125d2565b92915050565b6000806040838503121561261557612614612042565b5b60006126238582860161228f565b9250506020612634858286016125e9565b9150509250929050565b600080fd5b600080fd5b7f4e487b7100000000000000000000000000000000000000000000000000000000600052604160045260246000fd5b6126808261214d565b810181811067ffffffffffffffff8211171561269f5761269e612648565b5b80604052505050565b60006126b2612038565b90506126be8282612677565b919050565b600067ffffffffffffffff8211156126de576126dd612648565b5b6126e78261214d565b9050602081019050919050565b82818337600083830152505050565b6000612716612711846126c3565b6126a8565b90508281526020810184848401111561273257612731612643565b5b61273d8482856126f4565b509392505050565b600082601f83011261275a5761275961263e565b5b813561276a848260208601612703565b91505092915050565b6000806000806080858703121561278d5761278c612042565b5b600061279b8782880161228f565b94505060206127ac8782880161228f565b93505060406127bd878288016121da565b925050606085013567ffffffffffffffff8111156127de576127dd612047565b5b6127ea87828801612745565b91505092959194509250565b6000806040838503121561280d5761280c612042565b5b600061281b8582860161228f565b925050602061282c8582860161228f565b9150509250929050565b7f4e487b7100000000000000000000000000000000000000000000000000000000600052602260045260246000fd5b6000600282049050600182168061287d57607f821691505b6020821081036128905761288f612836565b5b50919050565b7f4552433732313a20617070726f76616c20746f2063757272656e74206f776e6560008201527f7200000000000000000000000000000000000000000000000000000000000000602082015250565b60006128f2602183612112565b91506128fd82612896565b604082019050919050565b60006020820190508181036000830152612921816128e5565b9050919050565b7f4552433732313a20617070726f76652063616c6c6572206973206e6f7420746f60008201527f6b656e206f776e6572206f7220617070726f76656420666f7220616c6c000000602082015250565b6000612984603d83612112565b915061298f82612928565b604082019050919050565b600060208201905081810360008301526129b381612977565b9050919050565b7f4d696e74696e6720707269636520697320302e30312065746865720000000000600082015250565b60006129f0601b83612112565b91506129fb826129ba565b602082019050919050565b60006020820190508181036000830152612a1f816129e3565b9050919050565b7f4d6178204e465473206973203430000000000000000000000000000000000000600082015250565b6000612a5c600e83612112565b9150612a6782612a26565b602082019050919050565b60006020820190508181036000830152612a8b81612a4f565b9050919050565b60008190508160005260206000209050919050565b60006020601f8301049050919050565b600082821b905092915050565b600060088302612af47fffffffffffffffffffffffffffffffffffffffffffffffffffffffffffffffff82612ab7565b612afe8683612ab7565b95508019841693508086168417925050509392505050565b6000819050919050565b6000612b3b612b36612b31846121b9565b612b16565b6121b9565b9050919050565b6000819050919050565b612b5583612b20565b612b69612b6182612b42565b848454612ac4565b825550505050565b600090565b612b7e612b71565b612b89818484612b4c565b505050565b5b81811015612bad57612ba2600082612b76565b600181019050612b8f565b5050565b601f821115612bf257612bc381612a92565b612bcc84612aa7565b81016020851015612bdb578190505b612bef612be785612aa7565b830182612b8e565b50505b505050565b600082821c905092915050565b6000612c1560001984600802612bf7565b1980831691505092915050565b6000612c2e8383612c04565b9150826002028217905092915050565b612c4782612107565b67ffffffffffffffff811115612c6057612c5f612648565b5b612c6a8254612865565b612c75828285612bb1565b600060209050601f831160018114612ca85760008415612c96578287015190505b612ca08582612c22565b865550612d08565b601f198416612cb686612a92565b60005b82811015612cde57848901518255600182019150602085019450602081019050612cb9565b86831015612cfb5784890151612cf7601f891682612c04565b8355505b6001600288020188555050505b505050505050565b7f4552433732313a2063616c6c6572206973206e6f7420746f6b656e206f776e6560008201527f72206f7220617070726f76656400000000000000000000000000000000000000602082015250565b6000612d6c602d83612112565b9150612d7782612d10565b604082019050919050565b60006020820190508181036000830152612d9b81612d5f565b9050919050565b7f4e487b7100000000000000000000000000000000000000000000000000000000600052601160045260246000fd5b6000612ddc826121b9565b9150612de7836121b9565b9250828201905080821115612dff57612dfe612da2565b5b92915050565b7f4e487b7100000000000000000000000000000000000000000000000000000000600052603260045260246000fd5b6000612e3f826121b9565b91507fffffffffffffffffffffffffffffffffffffffffffffffffffffffffffffffff8203612e7157612e70612da2565b5b600182019050919050565b7f4552433732313a20696e76616c696420746f6b656e2049440000000000000000600082015250565b6000612eb2601883612112565b9150612ebd82612e7c565b602082019050919050565b60006020820190508181036000830152612ee181612ea5565b9050919050565b7f4552433732313a2061646472657373207a65726f206973206e6f74206120766160008201527f6c6964206f776e65720000000000000000000000000000000000000000000000602082015250565b6000612f44602983612112565b9150612f4f82612ee8565b604082019050919050565b60006020820190508181036000830152612f7381612f37565b9050919050565b600081905092915050565b6000612f9082612107565b612f9a8185612f7a565b9350612faa818560208601612123565b80840191505092915050565b7f2f00000000000000000000000000000000000000000000000000000000000000600082015250565b6000612fec600183612f7a565b9150612ff782612fb6565b600182019050919050565b7f2e6a736f6e000000000000000000000000000000000000000000000000000000600082015250565b6000613038600583612f7a565b915061304382613002565b600582019050919050565b600061305a8285612f85565b915061306582612fdf565b91506130718284612f85565b915061307c8261302b565b91508190509392505050565b7f4f776e61626c653a206e6577206f776e657220697320746865207a65726f206160008201527f6464726573730000000000000000000000000000000000000000000000000000602082015250565b60006130e4602683612112565b91506130ef82613088565b604082019050919050565b60006020820190508181036000830152613113816130d7565b9050919050565b7f4552433732313a207472616e736665722066726f6d20696e636f72726563742060008201527f6f776e6572000000000000000000000000000000000000000000000000000000602082015250565b6000613176602583612112565b91506131818261311a565b604082019050919050565b600060208201905081810360008301526131a581613169565b9050919050565b7f4552433732313a207472616e7366657220746f20746865207a65726f2061646460008201527f7265737300000000000000000000000000000000000000000000000000000000602082015250565b6000613208602483612112565b9150613213826131ac565b604082019050919050565b60006020820190508181036000830152613237816131fb565b9050919050565b7f4f776e61626c653a2063616c6c6572206973206e6f7420746865206f776e6572600082015250565b6000613274602083612112565b915061327f8261323e565b602082019050919050565b600060208201905081810360008301526132a381613267565b9050919050565b7f4552433732313a20617070726f766520746f2063616c6c657200000000000000600082015250565b60006132e0601983612112565b91506132eb826132aa565b602082019050919050565b6000602082019050818103600083015261330f816132d3565b9050919050565b7f4552433732313a207472616e7366657220746f206e6f6e20455243373231526560008201527f63656976657220696d706c656d656e7465720000000000000000000000000000602082015250565b6000613372603283612112565b915061337d82613316565b604082019050919050565b600060208201905081810360008301526133a181613365565b9050919050565b7f4e487b7100000000000000000000000000000000000000000000000000000000600052601260045260246000fd5b600081519050919050565b600082825260208201905092915050565b60006133fe826133d7565b61340881856133e2565b9350613418818560208601612123565b6134218161214d565b840191505092915050565b6000608082019050613441600083018761224e565b61344e602083018661224e565b61345b60408301856125a8565b818103606083015261346d81846133f3565b905095945050505050565b60008151905061348781612078565b92915050565b6000602082840312156134a3576134a2612042565b5b60006134b184828501613478565b91505092915050565b7f4552433732313a206d696e7420746f20746865207a65726f2061646472657373600082015250565b60006134f0602083612112565b91506134fb826134ba565b602082019050919050565b6000602082019050818103600083015261351f816134e3565b9050919050565b7f4552433732313a20746f6b656e20616c7265616479206d696e74656400000000600082015250565b600061355c601c83612112565b915061356782613526565b602082019050919050565b6000602082019050818103600083015261358b8161354f565b905091905056fe697066733a2f2f516d54686d62355a6a5451546732615a504d3432734b75366a473174634d34377a707433416e7045323378316b35a264697066735822122042fbb55d227720bc9a24854db606a48912db4661c59d301f24e13a0dca3777d964736f6c63430008120033",
  "linkReferences": {},
  "deployedLinkReferences": {}
}